:100000000C9473000C9490000C9490000C9490004D
:100010000C94DB040C9490000C9490000C949000D1
:100020000C9490000C9490000C94AD010C949000F2
:100030000C9490000C94B50C0C9490000C949000CF
:100040000C9490000C9490000C9490000C949000F0
:100050000C94900007634236B79BD8A71A396856AC
:1000600018AEBAAB558C1D3CB7CC5763BD6DEDFDDA
:10007000753EF6177231BF000000803F0800000097
:10008000BE922449123EABAAAA2ABECDCCCC4C3E8D
:1000900000000080BEABAAAAAA3E00000000BF007C
:1000A0000000803F0000000000084178D3BB438778
:1000B000D1133D190E3CC3BD4282AD2B3E68EC828C
:1000C00076BED98FE1A93E4C80EFFFBE01C4FF7F11
:1000D0003F00000000000000FF00000000010100E0
:1000E000000000FF000011241FBECFE5D8E0DEBFF6
:1000F000CDBF11E0A0E6B0E0E2EBFDE302C0059069
:100100000D92A036B107D9F712E0A0E6B1E001C028
:100110001D92A136B107E1F70E9492000C94451E92
:100120000C940000DF93CF9300D00F92CDB7DEB7D1
:100130008AE390E0FC0110820E94CC090E947816AC
:100140000E9494060E9454018FE30E94B2170E94FD
:10015000031880E090E00E944A180E94121A0E9440
:10016000B61984E390E024E330E0F90120812064B3
:10017000FC0120830E94DD0D78940E94930C01C045
:1001800000001A8219821B8214C080916901282FF5
:1001900030E0C901880F991F820F931F8E599F4F1E
:1001A000FC0180810E941E0A9A8389838B818F5F64
:1001B0008B838B81823048F380916901282F30E056
:1001C000C901880F991F820F931F805A9F4FFC010E
:1001D000808191819C01295F3F4F89819A812817F5
:1001E0003907B0F080916901282F30E0C901880FEC
:1001F000991F820F931F805A9F4FFC01808191812C
:100200009C012750304089819A818217930728F5F5
:1002100080916901282F30E0C901880F991F820F52
:10022000931F805A9F4F29813A81FC01318320839B
:1002300080916901882F90E09C01285D3F4F898162
:100240009A81969587959695879596958795482F47
:100250008EE090E0B9010E948609809169018F5F6C
:100260008093690180916901833011F410926901D2
:100270000E94A50680912801882309F481CF80E09F
:1002800090E00E944A188091240190912501282F26
:100290008091260190912701982F822F692F0E942B
:1002A0004D09109228016DCFDF93CF93CDB7DEB704
:1002B00083E590E02AE0FC0120838CE590E025EFC7
:1002C000FC01208389E590E029E530E0F9012081F7
:1002D0002260FC0120838FE490E0FC0110828EE418
:1002E00090E0FC0110828FE490E02FE430E0F9010F
:1002F00020812064FC0120838EE490E02EE430E035
:10030000F90120812860FC0120838EE490E02EE436
:1003100030E0F90120812160FC0120838BE490E032
:10032000FC0110828AE490E021E0FC01208385E456
:1003300090E02FE0FC01208383E490E027E0FC01C3
:10034000208389E590E029E530E0F90120812068EB
:10035000FC012083CF91DF9108951F920F920FB679
:100360000F9211241F932F933F934F935F936F939B
:100370007F938F939F93AF93BF93EF93FF93DF93FD
:10038000CF9300D000D0CDB7DEB780916701282F82
:1003900030E080916701482F50E0CA01880F991F13
:1003A000880F991F880F991F840F951F86549F4FA0
:1003B000FC018081992787FD9095880F991F880FF0
:1003C000991F482F4F70C901880F991F880F991FD7
:1003D000880F991F820F931F86549F4FFC01408303
:1003E00080916701282F30E0C901880F991F880F7D
:1003F000991F880F991F820F931F84549F4FFC01F0
:100400008081882F90E085569E4FFC01408180912D
:100410006701282F30E0C901880F991F880F991FA5
:10042000880F991F820F931F83549F4FFC01808177
:100430008423882321F180916701282F30E0809167
:100440006701482F50E0CA01880F991F880F991F34
:10045000880F991F840F951F86549F4FFC01808140
:10046000482F4260C901880F991F880F991F880F74
:10047000991F820F931F86549F4FFC0140838091E8
:100480006701282F30E0C901880F991F880F991F35
:10049000880F991F820F931F84549F4FFC01808106
:1004A000882F90E085569E4FFC0140818091670126
:1004B000282F30E0C901880F991F880F991F880FD6
:1004C000991F820F931F82549F4FFC0180818423C8
:1004D000882321F180916701282F30E08091670106
:1004E000482F50E0CA01880F991F880F991F880F65
:1004F000991F840F951F86549F4FFC018081482FC0
:100500004160C901880F991F880F991F880F991F93
:10051000820F931F86549F4FFC0140838091670197
:10052000282F30E080916701482F50E0CA01880FE2
:10053000991F880F991F880F991F840F951F855445
:100540009F4FFC018081682F80916701482F50E008
:10055000CA01880F991F880F991F880F991F840F50
:10056000951F86549F4FFC018081992787FD9095A8
:100570008A529F4F9A83898389819A81FC011491C1
:100580001B838B81860F482FC901880F991F880F05
:10059000991F880F991F820F931F85549F4FFC014D
:1005A000408380916701282F30E0C901880F991F8F
:1005B000880F991F880F991F820F931F85549F4F93
:1005C000FC018081813009F044C080916701882F4F
:1005D00090E09C012C5E3F4F8EE090E0B9014FE728
:1005E0000E94860980916701282F30E0C901880F99
:1005F000991F880F991F880F991F820F931F875487
:100600009F4FFC018081882394F480916701282FFB
:1006100030E0C901880F991F880F991F880F991F13
:10062000820F931F87549F4F2FE7FC0120838091F7
:100630006701282F30E0C901880F991F880F991F83
:10064000880F991F820F931F85549F4FFC011082C2
:1006500056C080916701282F30E0C901880F991F8B
:10066000880F991F880F991F820F931F85549F4FE2
:10067000FC0180818F3F09F042C080916701882F83
:1006800090E09C012C5E3F4F8EE090E0B90141E08C
:100690000E94860980916701282F30E0C901880FE8
:1006A000991F880F991F880F991F820F931F8754D6
:1006B0009F4FFC018081882389F480916701282F56
:1006C00030E0C901880F991F880F991F880F991F63
:1006D000820F931F87549F4FFC0110828091670106
:1006E000282F30E0C901880F991F880F991F880FA4
:1006F000991F820F931F85549F4FFC011082809198
:1007000067018F5F80936701809167018B3011F4DF
:100710001092670180916801882F90E0880F991FDF
:10072000880F991F880F991F87599F4FFC012081BF
:1007300080916801882F90E0880F991F880F991F7A
:10074000880F991F83599F4FFC018081882F90E06B
:1007500085569E4FFC01308180916801882F90E082
:10076000880F991F880F991F880F991F82599F4FD3
:10077000FC018081832382278C8380916801882FEC
:1007800090E020916801222F30E0220F331F220FCA
:10079000331F220F331F25593F4FF90130812C8120
:1007A00023232095880F991F880F991F880F991F61
:1007B00085599F4FFC01208380916801882F90E02C
:1007C00020916801222F30E0220F331F220F331FA8
:1007D000220F331F25593F4FF901408120916801B5
:1007E000222F30E0220F331F220F331F220F331F1F
:1007F00024593F4FF90130812C8123232427880F6E
:10080000991F880F991F880F991F84599F4FFC01CA
:10081000208380916801882F90E0880F991F880FAE
:10082000991F880F991F85599F4FFC012081809146
:100830006801882F90E0880F991F880F991F880FF3
:10084000991F84599F4FFC01808182239C818923B9
:100850008C8380916801882F90E020916801222F7D
:1008600030E0220F331F220F331F220F331F27596F
:100870003F4FF90130812C812327880F991F880F62
:10088000991F880F991F87599F4FFC0120838091E2
:100890006801882F90E0880F991F880F991F880F93
:1008A000991F87599F4FFC018081882351F18091C6
:1008B0006801882F90E0880F991F880F991F880F73
:1008C000991F86599F4FFC0180818823D1F4809124
:1008D0006801882F90E0880F991F880F991F880F53
:1008E000991F86599F4F21E0FC0120838091680168
:1008F000282F30E08EE090E0B9014FE70E94860992
:1009000038C080916801882F90E0880F991F880F68
:10091000991F880F991F87599F4FFC018081882359
:1009200041F580916801882F90E0880F991F880F0A
:10093000991F880F991F86599F4FFC01808188233A
:1009400051F080916801282F30E08EE090E0B901ED
:1009500040E00E94860980916801882F90E0880F0E
:10096000991F880F991F880F991F86599F4FFC0167
:100970001082809168018F5F809368018091680187
:100980008A3011F4109268012496DEBFCDBFCF915A
:10099000DF91FF91EF91BF91AF919F918F917F91E7
:1009A0006F915F914F913F912F911F910F900FBECB
:1009B0000F901F9018951F920F920FB60F9211244F
:1009C0002F933F934F935F936F937F938F939F9357
:1009D000AF93BF93EF93FF93DF93CF930F92CDB776
:1009E000DEB788E390E028E330E0F9012081206160
:1009F000FC01208388E390E0FC018081882F90E057
:100A0000887090700097A1F188E390E028E330E0CF
:100A1000F9012081277FFC012083809165018823D3
:100A2000A1F088E390E028E330E0F9012081226022
:100A3000FC01208388E390E028E330E0F901208185
:100A40002D7FFC0120831092650188E390E028E36C
:100A500030E0F90120812068FC01208388E390E0E8
:100A600028E330E0F90120812F77FC01208327C0A3
:100A700080916501882319F188E390E028E330E054
:100A8000F90120812260FC01208388E390E028E3C3
:100A900030E0F90120812D7FFC0120831092650157
:100AA000809166010E942208809166018F5F809389
:100AB000660180916601863011F41092660184EB24
:100AC00095E0FC0109950E948F1A0E94D81988E3CD
:100AD00090E028E330E0F90120812F7EFC012083A3
:100AE000198226C04FE250E080916601282F30E045
:100AF0008981682F70E0C901880F991F820F931FA9
:100B0000880F991F880F991F880F991F860F971FAD
:100B100081559E4FFC018081FA01808300008EE2A6
:100B200090E0FC0180818823D4F789818F5F8983DD
:100B300089818831B8F281E0809365011092A20129
:100B40000F90CF91DF91FF91EF91BF91AF919F9166
:100B50008F917F916F915F914F913F912F910F9066
:100B60000FBE0F901F901895DF93CF93CDB7DEB7D0
:100B700080916401882371F180916401882F90E055
:100B80009C0121503040C901880F991F880F991F7F
:100B9000880F991F820F931F80549F4FFC01408143
:100BA00080916401882F90E09C0121503040C90160
:100BB000880F991F880F991F880F991F820F931F05
:100BC0008F539F4FFC019081842F692F40E00E943A
:100BD000391A13C04091230180912401282F30E05D
:100BE00081E090E002C0880F991F2A95E2F7982FC4
:100BF000842F692F40E00E94391A80916401282FC8
:100C000030E0C901880F991F880F991F880F991F1D
:100C1000820F931F80549F4FFC014081809164019B
:100C2000282F30E0C901880F991F880F991F880F5E
:100C3000991F820F931F8F539F4FFC019081842F28
:100C4000692F41E00E94391A809164018F5F80937F
:100C50006401809164018B3011F410926401CF9192
:100C6000DF910895DF93CF9300D0CDB7DEB78A83AD
:100C70008A818F3300F58A8199E0692F0E94671E6F
:100C800096E0292F281B822F89838981282F3327DB
:100C900027FD309580E890E002C0959587952A95CC
:100CA000E2F7982F80E0692F0E94251A82E060E029
:100CB0000E94251A34C08A81823400F18A81882FEB
:100CC00090E08054904029E030E0B9010E94731E0A
:100CD0009B01C9019C012150304082E090E002C09C
:100CE000880F991F2A95E2F7982F82E0692F0E94BA
:100CF000251A80E060E00E94251A11C08A818034A4
:100D000031F08A818F3319F08A81813441F482E095
:100D100061E00E94251A80E061E00E94251A0F9090
:100D20000F90CF91DF910895DF93CF93CDB7DEB7CA
:100D30008DE290E020E5FC0120838EE290E021E04E
:100D4000FC012083CF91DF910895DF93CF93CDB73E
:100D5000DEB7EB970FB6F894DEBF0FBECDBF19829A
:100D60001A82CE0140969E01225E3F4FB9010E9439
:100D70004E0A8B838B81882309F4D7C0CE0140961D
:100D80000E949E079D838C83CE014E960E949E07F3
:100D90009F838E838C819D81998788878E819F8197
:100DA0009B878A87888599859C0140E050E08A85E9
:100DB0009B85CC01A0E0B0E02CA73DA74EA75FA784
:100DC00088AB99ABAAABBBAB1CAA1DAA1EAA1FAAD3
:100DD00018AE19AE1AAE1BAECE01C496AE01445D7C
:100DE0005F4F2FE332E0BA01A9010E94A8158CA938
:100DF0009DA9AEA9BFA99D878C8788AD99ADAAADE5
:100E0000BBAD9F878E871092280180912001909121
:100E100021019C01275030408885998582179307CE
:100E200060F080912001909121019C01295F3F4F4A
:100E3000888599852817390780F588859985909345
:100E40001D0180931C0188859985909321018093D1
:100E500020018C859D858038910540F08EE090E0E2
:100E60006CE370E04FE70E94860914C08C859D8575
:100E7000009741F48EE090E06CE370E040E00E9467
:100E8000860908C02C858EE090E06CE370E0422F6C
:100E90000E94860981E0809328018091220190912F
:100EA00023019C01275030408A859B858217930738
:100EB00060F080912201909123019C01295F3F4FB6
:100EC0008A859B852817390780F58A859B859093AD
:100ED0001F0180931E018A859B8590932301809337
:100EE00022018E859F858038910540F08EE090E04C
:100EF0006DE370E04FE70E94860914C08E859F85E0
:100F0000009741F48EE090E06CE370E040E00E94D6
:100F1000860908C02E858EE090E06DE370E0422FD8
:100F20000E94860981E080932801EB960FB6F89421
:100F3000DEBF0FBECDBFCF91DF910895DF93CF937A
:100F4000CDB7DEB764970FB6F894DEBF0FBECDBF46
:100F50009C8B8B8B8B899C89FC01808191819E83EA
:100F60008D8381E089835FC08981882F90E0880F1D
:100F7000991F2B893C89820F931FFC0180819181ED
:100F80009C838B8389818A8336C08A81882F90E0F5
:100F90000197880F991F9E012F5F3F4F820F931F6C
:100FA0000496FC01208131818B819C8128173907AF
:100FB00030F18A81882F90E02A81222F30E0215061
:100FC0003040220F331FAE014F5F5F4F240F351F9C
:100FD0002C5F3F4FF90120813181880F991FAE01AD
:100FE0004F5F5F4F840F951F0496FC013183208370
:100FF0008A8181508A838A81882339F601C0000062
:101000008A81882F90E0880F991F9E012F5F3F4FA4
:10101000820F931F04962B813C81FC013183208336
:1010200089818F5F89838981873008F49DCF8B8583
:101030009C8564960FB6F894DEBF0FBECDBFCF91EE
:10104000DF910895DF93CF930F92CDB7DEB78983F9
:1010500089818823C1F08981882F90E00197875D7D
:101060009E4FFC018081282F30E081E090E002C09B
:10107000880F991F2A95E2F7982F81E0692F40E0A9
:101080000E94391A11C080912E01282F30E081E092
:1010900090E002C0880F991F2A95E2F7982F81E00F
:1010A000692F40E00E94391A8981882F90E0875D7E
:1010B0009E4FFC018081282F30E081E090E002C04B
:1010C000880F991F2A95E2F7982F81E0692F41E058
:1010D0000E94391A0F90CF91DF910895EF92FF92FD
:1010E0000F931F93DF93CF93CDB7DEB72E970FB635
:1010F000F894DEBF0FBECDBF9C878B877E876D8740
:101100001A821982B7C01C821B82A9C089819A8168
:10111000909581959F4FCC01A0E0B0E0BC01CD013E
:101120000E94F81B9B01AC01CA01B9010E94431D3A
:10113000DC01CB01BC01CD0120E030E74CE956E4F5
:101140000E94331BDC01CB01BC01CD010E94A01B1E
:10115000DC01CB018D839E83AF83B8878B819C811B
:10116000CC01A0E0B0E0BC01CD010E94F81B9B01C6
:10117000AC01CA01B9010E94431DDC01CB01BC01D5
:10118000CD012D813E814F8158850E94431DDC0198
:10119000CB01BC01CD0120E030E74CE956E40E94D0
:1011A000331BDC01CB019C01AD016D817E818F8100
:1011B00098850E94CA1ADC01CB017C018D018B81CC
:1011C0009C81CC01A0E0B0E0BC01CD010E94F81BE5
:1011D000DC01CB01BC01CD0120E030E040E850E46F
:1011E0000E94A61DDC01CB01BC01CD012D813E81F9
:1011F0004F8158850E94431DDC01CB01BC01CD010C
:1012000022E631E34FE35EE40E94331BDC01CB01B5
:101210009C01AD01C801B7010E94CB1ADC01CB01D2
:10122000BC01CD0120E030EF4FE755E40E94431DA3
:10123000DC01CB01BC01CD010E94CC1BDC01CB0148
:101240009A87898789819B8129853A85692FA90198
:101250000E94CD188B819C8101969C838B838B810E
:101260009C818830910508F451CF89819A8101963B
:101270009A83898389819A818630910508F443CFC6
:101280002E960FB6F894DEBF0FBECDBFCF91DF9183
:101290001F910F91FF90EF900895DF93CF9300D0AF
:1012A00000D000D0CDB7DEB78D836E831A8219824D
:1012B0000CC099818E81692F4FEF5FE00E94CD189D
:1012C00089819A8101969A83898389819A8188305C
:1012D000910578F31C821B820BC08B816D814FEFCF
:1012E0005FE00E94CD188B819C8101969C838B834B
:1012F0008B819C818630910580F326960FB6F894F9
:10130000DEBF0FBECDBFCF91DF910895DF93CF93A6
:1013100000D000D00F92CDB7DEB79A8389837C834B
:101320006B834D8389819A8180559F4F2D81222F18
:1013300030E04B815C81BA01A9010E94A7090F909E
:101340000F900F900F900F90CF91DF910895DF9342
:10135000CF9300D000D000D0CDB7DEB79A83898379
:101360007C836B835E834D83898160E070E00E94A3
:10137000B40D8B8160E070E00E94B40D8D8160E05F
:1013800070E00E94B40D26960FB6F894DEBF0FBE33
:10139000CDBFCF91DF910895DF93CF9300D000D0E0
:1013A000CDB7DEB787E290E020E4FC01208386E23F
:1013B00090E023E0FC01208386E290E026E230E02A
:1013C000F90120812068FC0120831A8219822AC039
:1013D00087E290E027E230E0F9012081207E26605C
:1013E000FC01208386E290E026E230E0F9012081D2
:1013F0002064FC012083000086E290E0FC018081F3
:10140000882F90E0807490700097B1F784E290E0AC
:10141000FC01808191819C838B8389819A810196D3
:101420009A83898389819A81843191058CF20F9006
:101430000F900F900F90CF91DF910895DF93CF938E
:101440000F92CDB7DEB7898387E290E027E230E0E4
:10145000F9012081322F307E29812F71232BFC014D
:10146000208386E290E026E230E0F90120812064CA
:10147000FC012083000086E290E0FC018081882F3F
:1014800090E0807490700097B1F784E290E0FC01E6
:10149000808191810F90CF91DF9108950F931F93D9
:1014A000DF93CF93CDB7DEB7C654D0400FB6F894D4
:1014B000DEBF0FBECDBF9E012D5B3F4FF901918373
:1014C0008083CE018B5B9F4FFC0171836083198207
:1014D0001A822EE0CE018796FC01322F11923A95A6
:1014E000E9F72EE0CE01C596FC01322F11923A9514
:1014F000E9F78AE390E02AE330E0F90120812160F6
:10150000FC0120838AE390E02AE330E0F9012081A6
:101510002460FC0120838AE390E02AE330E0F901B3
:1015200020812F7EFC0120838AE390E02AE330E0D3
:10153000F90120812F7BFC0120838BE390E02BE3DA
:1015400030E0F90120812160FC0120838BE390E0F1
:101550002BE330E0F90120812B7FFC01208380E028
:1015600090E0A0E0B0E48B879C87AD87BE876B8559
:101570007C858D859E8520E030E04AEF54E40E9412
:10158000431DDC01CB018F87988BA98BBA8B11E0AF
:101590006F85788989899A8920E030E040E85FE3A7
:1015A0000E942F1B88230CF010E0112329F081E00A
:1015B00090E09C8B8B8B46C011E06F857889898980
:1015C0009A8920E03FEF4FE757E40E94CF1C18169E
:1015D0000CF010E0112361F16B857C858D859E8573
:1015E00020E030E040E251E40E94431DDC01CB01E9
:1015F000BC01CD010E94CC1BDC01CB019C8B8B8BF1
:1016000012C088EC90E09E8B8D8B8D899E898C0119
:10161000C8010197F1F78C011E8B0D8B8B899C897A
:1016200001979C8B8B8B8B899C89009751F717C0F6
:101630006F85788989899A890E94CC1BDC01CB014E
:101640009C8B8B8B8B899C89988F8F8B8F89988DA6
:101650008C01F8013197F1F78F01188F0F8B84E01F
:101660000E941E0A2FEF33E0A901481B590BCA0143
:1016700098878F831C821B823EC084E00E941E0AD2
:101680002FEF33E0F901E81BF90BCF0198878F8327
:101690008B819C81880F991F9E012F5F3F4F820F86
:1016A000931F86962F813885FC01318320838F819B
:1016B00098858F31910528F18F819885F3E0863BDD
:1016C0009F07F8F48B819C81880F991F9E012D5BE9
:1016D0003F4FF90120813181820F931F2F8138857F
:1016E000FC013183208389818F5F89838B819C8179
:1016F00001969C838B838B819C81873091050CF4B0
:10170000BCCF8AE390E02AE330E0F9012081206138
:10171000FC0120838AE390E02AE330E0F901208194
:101720002064FC0120838AE390E02AE330E0F901A1
:1017300020812E7FFC0120838AE390E02AE330E0C1
:10174000F90120812B7FFC0120838BE390E02BE3C8
:1017500030E0F90120812061FC0120838BE390E0DF
:101760002BE330E0F90120812F7BFC01208380E016
:1017700090E0A0E0B0E4898F9A8FAB8FBC8F698D29
:101780007A8D8B8D9C8D20E030E04AEF54E40E94EE
:10179000431DDC01CB018D8F9E8FAF8FB8A311E06D
:1017A0006D8D7E8D8F8D98A120E030E040E85FE365
:1017B0000E942F1B88230CF010E0112329F081E0F8
:1017C00090E09AA389A346C011E06D8D7E8D8F8D28
:1017D00098A120E03FEF4FE757E40E94CF1C181676
:1017E0000CF010E0112361F1698D7A8D8B8D9C8D49
:1017F00020E030E040E251E40E94431DDC01CB01D7
:10180000BC01CD010E94CC1BDC01CB019AA389A3B2
:1018100012C088EC90E09CA38BA38BA19CA18C01AF
:10182000C8010197F1F78C011CA30BA389A19AA110
:1018300001979AA389A389A19AA1009751F717C08C
:101840006D8D7E8D8F8D98A10E94CC1BDC01CB010C
:101850009AA389A389A19AA19EA38DA38DA19EA1DC
:101860008C01F8013197F1F78F011EA30DA31E82A1
:101870001D823EC082E00E941E0A2FEF33E0A901C4
:10188000481B590BCA019A8789878D819E81880FD1
:10189000991F9E012F5F3F4F820F931FC49629858A
:1018A0003A85FC013183208389859A8581359105AC
:1018B00028F189859A85F3E0863B9F07F8F48D81AE
:1018C0009E81880F991F9E012B5B3F4FF90120815C
:1018D0003181820F931F29853A85FC013183208352
:1018E0008A818F5F8A838D819E8101969E838D83FD
:1018F0008D819E81873091050CF4BCCF8981873022
:1019000029F48A81873011F481E001C080E0CA5B4C
:10191000DF4F0FB6F894DEBF0FBECDBFCF91DF9182
:101920001F910F910895DF93CF93CDB7DEB78AE271
:1019300090E02AE230E0F90120812869FC0120834F
:1019400080E490E020E430E0F90120812668FC0189
:10195000208380E490E0FC01108289E290E02FE196
:10196000FC012083CF91DF9108951F920F920FB653
:101970000F9211242F933F934F935F936F937F9315
:101980008F939F93AF93BF93EF93FF93DF93CF9387
:1019900000D000D0CDB7DEB78CE290E0FC018081B2
:1019A00089838981882F90E0807F9070803B9105AA
:1019B00051F480916201882331F4809162018F5F3C
:1019C0008093620183C080916201813049F48981F2
:1019D00080936301809162018F5F8093620176C082
:1019E00080916201823009F071C089818A8380917F
:1019F0006301843110F580916301882F90E0880F96
:101A0000991F880F991F880F991F81599F4FFC01BB
:101A1000208180916301882F90E0880F991F880FA3
:101A2000991F880F991F80599F4FFC019081822F29
:101A3000692F4A810E94391A47C08091630184311D
:101A4000D0F0809163018832B0F480916301882FD7
:101A500090E09C0124513040C901880F991F880FE4
:101A6000991F880F991F820F931F87549F4F2A81B8
:101A7000FC01208329C080916301893289F481E0CF
:101A8000809328018A8196E1692F0E94671E8B83CB
:101A90008B81882F90E0909327018093260114C0BA
:101AA00080916301883281F481E0809328018A81EA
:101AB00091E1692F0E94671E8C838C81882F90E0B2
:101AC0009093250180932401109262012496DEBF39
:101AD000CDBFCF91DF91FF91EF91BF91AF919F91DA
:101AE0008F917F916F915F914F913F912F910F90C7
:101AF0000FBE0F901F901895DF93CF9300D000D0AA
:101B0000CDB7DEB79C838B831A8219821FC089816F
:101B10009A812B813C81820F931FFC018081882355
:101B2000D9F089819A812B813C81820F931FFC011E
:101B3000408189819A8101969A83898320915D02EF
:101B400030915E02842FB9010E94B40D89819A817F
:101B500080349105E4F201C000000F900F900F90C7
:101B60000F90CF91DF910895DF93CF9300D00F9224
:101B7000CDB7DEB789837B836A8389818A3031F46C
:101B80002A813B818DE0B9010E94B40D8BE290E087
:101B9000FC018081882F90E0807290700097B1F3F3
:101BA0008CE290E02981FC01208380E090E00F909E
:101BB0000F900F90CF91DF910895EF92FF920F93C6
:101BC0001F93DF93CF93CDB7DEB762970FB6F8942C
:101BD000DEBF0FBECDBF1C821B828AE390E02AE3EA
:101BE00030E0F90120812061FC0120838AE390E04C
:101BF0002AE330E0F90120812064FC0120838AE39C
:101C000090E02AE330E0F90120812160FC0120838B
:101C10008AE390E02AE330E0F90120812460FC01AE
:101C200020838BE390E02BE330E0F90120812E7FCD
:101C3000FC0120838BE390E02BE330E0F90120816D
:101C40002B7FFC0120838BE390E02BE330E0F90154
:101C500020812F7EFC0120838BE390E02BE330E09A
:101C6000F90120812F7BFC01208380E090E0AAE72E
:101C7000B4E48D839E83AF83B8876D817E818F812D
:101C8000988520E030E04AEF54E40E94431DDC01D7
:101C9000CB0189879A87AB87BC8711E069857A85F4
:101CA0008B859C8520E030E040E85FE30E942F1B9D
:101CB00088230CF010E0112329F081E090E09E874A
:101CC0008D8746C011E069857A858B859C8520E0EB
:101CD0003FEF4FE757E40E94CF1C18160CF010E0BE
:101CE000112361F16D817E818F81988520E030E044
:101CF00040E251E40E94431DDC01CB01BC01CD0157
:101D00000E94CC1BDC01CB019E878D8712C088EC22
:101D100090E0988B8F878F8598898C01C8010197F7
:101D2000F1F78C01188B0F878D859E8501979E8713
:101D30008D878D859E85009751F717C069857A85B7
:101D40008B859C850E94CC1BDC01CB019E878D87F7
:101D50008D859E859A8B898B89899A898C01F8015A
:101D60003197F1F78F011A8B098B80E090E00E9488
:101D7000230F81E090E00E94230F1A82198244C051
:101D800089819A81880F991F880F991F880F991F41
:101D9000815D9E4FFC0180819181A281B381298167
:101DA0003A81220F331F220F331F220F331F2D5C66
:101DB0003E4FF901208131814281538169817A81CD
:101DC000660F771F660F771F660F771F8B01065907
:101DD0001E4F69817A81660F771F660F771F660F26
:101DE000771F6C5F7F4FFB01E659FE4FBC01CD01B1
:101DF0007F010E945C1080E090E00E94230F8981A7
:101E00009A8101969A83898389819A818330910589
:101E10000CF4B6CF8FE291E04AE651E02FE332E0D6
:101E2000BA01A9010E945D118B819C8162960FB657
:101E3000F894DEBF0FBECDBFCF91DF911F910F9100
:101E4000FF90EF9008950F931F93DF93CF93CDB73B
:101E5000DEB7EB970FB6F894DEBF0FBECDBF9BAFDA
:101E60008AAF8AAD9BAD009709F48EC080E090E008
:101E7000A8ECB2E48A839B83AC83BD836A817B81B7
:101E80008C819D8120E030E04AEF54E40E94431DA4
:101E9000DC01CB018E839F83A887B98711E06E8117
:101EA0007F818885998520E030E040E85FE30E94EB
:101EB0002F1B88230CF010E0112329F081E090E023
:101EC0009B878A8746C011E06E817F8188859985CE
:101ED00020E03FEF4FE757E40E94CF1C18160CF0AC
:101EE00010E0112361F16A817B818C819D8120E06A
:101EF00030E040E251E40E94431DDC01CB01BC0113
:101F0000CD010E94CC1BDC01CB019B878A8712C0CC
:101F100088EC90E09D878C878C859D858C01C8011D
:101F20000197F1F78C011D870C878A859B850197A6
:101F30009B878A878A859B85009751F717C06E819A
:101F40007F81888599850E94CC1BDC01CB019B8712
:101F50008A878A859B859F878E878E859F858C0142
:101F6000C8010197F1F78C011F870E87CE014E96AD
:101F70009E01245D3F4FB9010E944E0A89838981E9
:101F8000882309F473CF8DC080E090E0A8ECB2E420
:101F9000888B998BAA8BBB8B688979898A899B8965
:101FA00020E030E04AEF54E40E94431DDC01CB0105
:101FB0008C8B9D8BAE8BBF8B11E06C897D898E895C
:101FC0009F8920E030E040E85FE30E942F1B8823D8
:101FD0000CF010E0112329F081E090E0998F888FB8
:101FE00046C011E06C897D898E899F8920E03FEF92
:101FF0004FE757E40E94CF1C18160CF010E0112395
:1020000061F1688979898A899B8920E030E040E222
:1020100051E40E94431DDC01CB01BC01CD010E94B3
:10202000CC1BDC01CB01998F888F12C088EC90E02B
:102030009B8F8A8F8A8D9B8D8C01C8010197F1F748
:102040008C011B8F0A8F888D998D0197998F888FAE
:10205000888D998D009751F717C06C897D898E897D
:102060009F890E94CC1BDC01CB01998F888F888DC2
:10207000998D9D8F8C8F8C8D9D8D8C01C8010197C2
:10208000F1F78C011D8F0C8FCE014E969E01245DC1
:102090003F4FB9010E944E0A89838981882309F044
:1020A00073CFEB960FB6F894DEBF0FBECDBFCF91C6
:1020B000DF911F910F910895EF92FF920F931F935D
:1020C000DF93CF93CDB7DEB7EB970FB6F894DEBFB3
:1020D0000FBECDBF68AB79AB8AAB9BAB2CAB3DAB36
:1020E0004EAB5FAB19AF08AFFBAEEAAE80919A0181
:1020F0008F5F80939A0181E090E00E94230F80E03F
:1021000090E0A6E9B3E48E839F83A887B9876E81A8
:102110007F818885998520E030E04AEF54E40E9471
:10212000431DDC01CB018A879B87AC87BD8711E00B
:102130006A857B858C859D8520E030E040E85FE303
:102140000E942F1B88230CF010E0112329F081E05E
:1021500090E09F878E8746C011E06A857B858C85DD
:102160009D8520E03FEF4FE757E40E94CF1C1816F3
:102170000CF010E0112361F16E817F8188859985D3
:1021800020E030E040E251E40E94431DDC01CB013D
:10219000BC01CD010E94CC1BDC01CB019F878E8747
:1021A00012C088EC90E0998B888B888999898C0182
:1021B000C8010197F1F78C01198B088B8E859F85DB
:1021C00001979F878E878E859F85009751F717C04F
:1021D0006A857B858C859D850E94CC1BDC01CB01AB
:1021E0009F878E878E859F859B8B8A8B8A899B890B
:1021F0008C01F8013197F1F78F011B8B0A8BCE010F
:1022000044969E012E5D3F4FB9010E944E0A89837C
:1022100080919A01882F90E08130910561F08230A1
:10222000910581F00097A9F481E061E04FEF5FE054
:102230000E94CD180EC083E066E04FEF5FE00E9481
:10224000CD1807C088E063E04FEF5FE00E94CD1833
:1022500000008981882399F2CE0144960E949E074E
:102260009B838A83CE0182960E949E079D838C83E6
:102270008A819B81CC01A0E0B0E028AD39ADF901A5
:1022800080839183A283B3838C819D81CC01A0E064
:10229000B0E02AAD3BADF90180839183A283B38383
:1022A000EB960FB6F894DEBF0FBECDBFCF91DF9196
:1022B0001F910F91FF90EF9008956F927F928F92F0
:1022C0009F92AF92BF92CF92DF92EF92FF920F93C5
:1022D0001F93DF93CF93CDB7DEB728970FB6F8944F
:1022E000DEBF0FBECDBF9C838B837E836D835887FB
:1022F0004F831A8219828D819E81FC012081318158
:10230000428153818D819E814096FC018081918123
:10231000A281B38139014A01681A790A8A0A9B0AA3
:10232000D401C3012D813E81285F3F4FF901E48034
:10233000F580068117812D813E81205F3F4FF90195
:10234000248135814681578137014801621A730A19
:10235000840A950AA4019301BC01CD010E94481E84
:102360007B018C018D819E810896FC012081318149
:10237000428153818D819E814096FC0180819181B3
:10238000A281B38139014A01681A790A8A0A9B0A33
:10239000D401C3012D813E81205F3F4FF901A4800C
:1023A000B580C680D7802D813E81F9012481358199
:1023B0004681578135014601621A730A840A950ADB
:1023C000A4019301BC01CD010E94481EDC01CB0198
:1023D0008E0D9F1DA01FB11F2F813885F901808FA1
:1023E000918FA28FB38F8F819885FC01808D918D05
:1023F000A28DB38D0097A105B10529F48FEF9FEF52
:102400009A8389838EC38B819C81FC0120813181D9
:10241000428153818B819C814096FC018081918116
:10242000A281B38139014A01681A790A8A0A9B0A92
:10243000D401C3012D813E81285F3F4FF901E48023
:10244000F580068117812D813E81205F3F4FF90184
:10245000248135814681578137014801621A730A08
:10246000840A950AA4019301BC01CD010E94481E73
:102470007B018C018B819C810896FC01208131813C
:10248000428153818B819C814096FC0180819181A6
:10249000A281B38139014A01681A790A8A0A9B0A22
:1024A000D401C3012D813E81205F3F4FF901A480FB
:1024B000B580C680D7802D813E81F9012481358188
:1024C0004681578135014601621A730A840A950ACA
:1024D000A4019301BC01CD010E94481EDC01CB0187
:1024E0008E0D9F1DA01FB11F2F813885F90180839C
:1024F0009183A283B3838D819E81FC0120813181F0
:10250000428153818D819E814096FC018081918121
:10251000A281B38139014A01681A790A8A0A9B0AA1
:10252000D401C3012B813C81285F3F4FF901E0803A
:10253000F180028113812B813C81205F3F4FF901A3
:10254000208131814281538137014801621A730A27
:10255000840A950AA4019301BC01CD010E94481E82
:102560007B018C018B819C81FC0120813181428126
:1025700053818B819C814096FC0180819181A28155
:10258000B38139014A01681A790A8A0A9B0AD4017F
:10259000C3012D813E81205F3F4FF901A080B180B2
:1025A000C280D3802D813E81285F3F4FF901208179
:1025B00031814281538135014601621A730A840ACE
:1025C000950AA4019301BC01CD010E94481EDC01C3
:1025D000CB018E0D9F1DA01FB11F2F813885F901E2
:1025E00084839583A683B7838D819E814096FC0169
:1025F00080819181A281B3812B813C81285F3F4FF3
:10260000F9012081318142815381BC01CD010E94B9
:10261000481E7B018C018D819E810896FC01808182
:102620009181A281B3812B813C81205F3F4FF901D1
:102630002081318142815381BC01CD010E94481E1D
:10264000DC01CB0137014801681A790A8A0A9B0A22
:10265000D401C3012D813E81F90124813581468158
:102660005781BC01CD010E94481E7B018C018D81E8
:102670009E81FC0180819181A281B3812B813C816B
:10268000205F3F4FF9012081318142815381BC019C
:10269000CD010E94481E5B016C018D819E81409698
:1026A000FC0180819181A281B3812B813C81F90160
:1026B0002081318142815381BC01CD010E94481E9D
:1026C000DC01CB0135014601681A790A8A0A9B0AA6
:1026D000D401C3012D813E81285F3F4FF901248140
:1026E000358146815781BC01CD010E94481EDC0125
:1026F000CB01E80EF91E0A1F1B1F8D819E810896D3
:10270000FC0180819181A281B3812B813C81F901FF
:102710002081318142815381BC01CD010E94481E3C
:102720005B016C018D819E81FC0180819181A28180
:10273000B3812B813C81285F3F4FF901208131819A
:1027400042815381BC01CD010E94481EDC01CB01B6
:1027500035014601681A790A8A0A9B0AD401C30125
:102760002D813E81205F3F4FF901248135814681D3
:102770005781BC01CD010E94481EDC01CB018E0DAA
:102780009F1DA01FB11F2F813885F9018087918778
:10279000A287B3878B819C81FC012481358146818E
:1027A00057818B819C814096FC0184819581A68113
:1027B000B78139014A01681A790A8A0A9B0AD40149
:1027C000C3012D813E81285F3F4FF901E480F580F0
:1027D000068117812D813E81205F3F4FF9012481C1
:1027E00035814681578137014801621A730A840A8C
:1027F000950AA4019301BC01CD010E94481E7B01F2
:102800008C018B819C810896FC0124813581468155
:1028100057818B819C814096FC0184819581A681A2
:10282000B78139014A01681A790A8A0A9B0AD401D8
:10283000C3012D813E81205F3F4FF901A480B58007
:10284000C680D7802D813E81F90124813581468162
:10285000578135014601621A730A840A950AA40158
:102860009301BC01CD010E94481EDC01CB018E0DFD
:102870009F1DA01FB11F2F813885F901848795877F
:10288000A687B7878D819E81FC012081318142819D
:1028900053818D819E814096FC0180819181A2812E
:1028A000B38139014A01681A790A8A0A9B0AD4015C
:1028B000C3012B813C81285F3F4FF901E480F58003
:1028C000068117812B813C81205F3F4FF9012481D4
:1028D00035814681578137014801621A730A840A9B
:1028E000950AA4019301BC01CD010E94481E7B0101
:1028F0008C018B819C81FC0124813581468157812B
:102900008B819C814096FC0184819581A681B78151
:1029100039014A01681A790A8A0A9B0AD401C3015B
:102920002D813E81205F3F4FF901A080B180C280A0
:10293000D3802D813E81285F3F4FF9012081318175
:102940004281538135014601621A730A840A950A4D
:10295000A4019301BC01CD010E94481EDC01CB0102
:102960008E0D9F1DA01FB11F2F813885F901808B0F
:10297000918BA28BB38B8D819E814096FC018081CF
:102980009181A281B3812B813C81285F3F4FF90166
:102990002481358146815781BC01CD010E94481EAA
:1029A0007B018C018D819E810896FC018081918143
:1029B000A281B3812B813C81205F3F4FF9012481AB
:1029C000358146815781BC01CD010E94481EDC0142
:1029D000CB0137014801681A790A8A0A9B0AD40197
:1029E000C3012D813E81F9012481358146815781C2
:1029F000BC01CD010E94481E7B018C018D819E810E
:102A0000FC0180819181A281B3812B813C81205F77
:102A10003F4FF9012481358146815781BC01CD01A9
:102A20000E94481E5B016C018D819E814096FC01D5
:102A300080819181A281B3812B813C81F901248124
:102A4000358146815781BC01CD010E94481EDC01C1
:102A5000CB0135014601681A790A8A0A9B0AD4011A
:102A6000C3012D813E81285F3F4FF90124813581CB
:102A700046815781BC01CD010E94481EDC01CB017B
:102A8000E80EF91E0A1F1B1F8D819E810896FC010E
:102A900080819181A281B3812B813C81F9012481C4
:102AA000358146815781BC01CD010E94481E5B01E2
:102AB0006C018D819E81FC0180819181A281B38115
:102AC0002B813C81285F3F4FF9012481358146816C
:102AD0005781BC01CD010E94481EDC01CB013501AC
:102AE0004601681A790A8A0A9B0AD401C3012D811A
:102AF0003E81205F3F4FF901248135814681578116
:102B0000BC01CD010E94481EDC01CB018E0D9F1D32
:102B1000A01FB11F2F813885F901848B958BA68B5F
:102B2000B78B89819A8128960FB6F894DEBF0FBEC5
:102B3000CDBFCF91DF911F910F91FF90EF90DF906C
:102B4000CF90BF90AF909F908F907F906F9008959F
:102B5000EF92FF920F931F93DF93CF93CDB7DEB722
:102B600028970FB6F894DEBF0FBECDBF9C838B8332
:102B70007E836D8358874F831A8219828F8198854F
:102B8000FC01808D918DA28DB38D0097A105B105BB
:102B900009F49BC08F819885FC0180819181A2817D
:102BA000B3812D813E81F9012081318142815381A0
:102BB000BC01CD010E94481E7B018C018F8198854C
:102BC000FC0184819581A681B7812D813E81F90127
:102BD0002481358146815781BC01CD010E94481E68
:102BE000DC01CB01A8019701280F391F4A1F5B1F89
:102BF0008F819885FC0180859185A285B385820FA0
:102C0000931FA41FB51F2F813885F901208D318DA9
:102C1000428D538DBC01CD010E94861EDA01C9018F
:102C20002B813C81F90180839183A283B3838F81BF
:102C30009885FC0184859585A685B7852D813E8183
:102C4000F9012081318142815381BC01CD010E9473
:102C5000481E7B018C018F819885FC0180899189B8
:102C6000A289B3892D813E81F90124813581468174
:102C70005781BC01CD010E94481EDC01CB01A80197
:102C80009701280F391F4A1F5B1F8F819885FC0110
:102C900084899589A689B789820F931FA41FB51FC0
:102CA0002F813885F901208D318D428D538DBC01E6
:102CB000CD010E94861EDA01C9012B813C81F901F8
:102CC00084839583A683B78304C08FEF9FEF9A8395
:102CD000898389819A8128960FB6F894DEBF0FBE4A
:102CE000CDBFCF91DF911F910F91FF90EF9008958D
:102CF000DF93CF93CDB7DEB781E390E021E330E0FF
:102D0000F90120812062FC01208387E390E027E322
:102D100030E0F90120812068FC01208387E390E006
:102D200027E330E0F90120812460FC01208387E360
:102D300090E027E330E0F90120812860FC01208346
:102D400087E390E027E330E0F90120812260FC0175
:102D5000208387E390E027E330E0F90120812061C0
:102D6000FC01208387E390E027E330E0F901208134
:102D70002062FC01208382E390E022E330E0F9014D
:102D800020812F7DFC01208388E390E028E330E060
:102D9000F90120812F77FC01208388E390E028E36C
:102DA00030E0F90120812B7FFC01208388E390E053
:102DB00028E330E0F90120812860FC01208388E3CA
:102DC00090E028E330E0F90120812D7FFC01208391
:102DD00088E390E028E330E0F90120812061FC01E4
:102DE000208381E390E021E330E0F901208120623B
:102DF000FC012083CF91DF910895DF93CF9300D022
:102E00000F92CDB7DEB78A836B839FE08A81292F2B
:102E1000281B822F8A838A81882F90E09C01220FB1
:102E2000331F820F931F99230CF403969595879572
:102E30009595879589838A81882F90E0837090701B
:102E400081309105E1F08230910509F444C000978A
:102E500009F06FC08981882F90E02981222F30E00E
:102E60002D553E4FF9012081322F33702B81220FD7
:102E7000220F232B8D559E4FFC0120836DC089812D
:102E8000882F90E02981222F30E02D553E4FF90107
:102E90002081322F3C7F2B8122952F70232B8D5543
:102EA0009E4FFC01208389818F5F89838981882FD0
:102EB00090E02981222F30E02D553E4FF9012081ED
:102EC000322F3F702B812295207F232B8D559E4FD3
:102ED000FC01208341C08981882F90E02981222F25
:102EE00030E02D553E4FF9012081322F307F2B816C
:102EF00026952695232B8D559E4FFC012083898195
:102F00008F5F89838981882F90E02981222F30E08B
:102F10002D553E4FF9012081322F3F732B81229591
:102F2000220F220F207C232B8D559E4FFC012083E6
:102F300013C08981882F90E02981222F30E02D5500
:102F40003E4FF9012081322F307C2B81232B8D5570
:102F50009E4FFC01208300000F900F900F90CF91A7
:102F6000DF910895DF93CF9300D000D00F92CDB7BB
:102F7000DEB78D838D81880F880F8A838A81880FC1
:102F8000880F8B838B81880F880F8C838D8182952E
:102F90008F709A81892B8A838D81869586959B81F6
:102FA000892B8B839C818D81892B8C8319828981CC
:102FB000882F90E08D559E4F2A81FC0120838981C6
:102FC0008F5F89838981882F90E08D559E4F2B815B
:102FD000FC01208389818F5F89838981882F90E01C
:102FE0008D559E4F2C81FC01208389818F5F8983C1
:102FF00089818C30E0F20F900F900F900F900F901E
:10300000CF91DF910895DF93CF930F92CDB7DEB7C5
:1030100088E390E028E330E0F90120812460FC019E
:10302000208388E390E028E330E0F90120812860E4
:10303000FC012083198215C08FE290E02981222FA4
:1030400030E02D553E4FF9012081FC012083000026
:103050008EE290E0FC0180818823D4F789818F5F24
:10306000898389818C3040F388E390E028E330E065
:10307000F90120812260FC01208388E390E028E3AD
:1030800030E0F90120812D7FFC0120830F90CF914A
:10309000DF910895DF93CF9300D000D000D0CDB75B
:1030A000DEB79E838D838D819E81929582958F70F0
:1030B00089279F7089278B838D81982F9295907F88
:1030C0008B8182958F70892B8C83198259C01A82CB
:1030D0008981282F30E08A81482F50E0C901880F6C
:1030E000991F820F931F880F991F880F991F880FB0
:1030F000991F840F951F81559E4F2B81FC012083C2
:103100008A818F5F8A838981282F30E08A81482FC6
:1031100050E0C901880F991F820F931F880F991FD4
:10312000880F991F880F991F840F951F81559E4FF7
:103130002C81FC0120838A818F5F8A838981282FDB
:1031400030E08A81482F50E06D81C901880F991FB6
:10315000820F931F880F991F880F991F880F991F3F
:10316000840F951F81559E4FFC0160838A818F5F7C
:103170008A838A81883108F4ABCF89818F5F898304
:103180008981863008F4A3CF26960FB6F894DEBF67
:103190000FBECDBFCF91DF910895DF93CF9300D0C5
:1031A00000D00F92CDB7DEB78A836B835D834C83EB
:1031B0009FE08B81292F281B822F8B838B81882F67
:1031C00090E09C01220F331F820F931F99230CF470
:1031D00001969595879589838B81882F90E08170E2
:1031E0009070009709F061C08A81863008F05DC058
:1031F0008981883108F059C08A81282F30E089817F
:10320000482F50E08C819D81929582958F708927FF
:103210009F708927682FC901880F991F820F931FFC
:10322000880F991F880F991F880F991F840F951F6A
:1032300081559E4FFC01608389818F5F89838A81DC
:10324000282F30E08981682F70E08A81482F50E074
:103250008981E82FF0E0CA01880F991F840F951F1C
:10326000880F991F880F991F880F991F8E0F9F1F16
:1032700081559E4FFC018081982F9F708C81829593
:10328000807F892B482FC901880F991F820F931FB8
:10329000880F991F880F991F880F991F860F971FF6
:1032A00081559E4FFC01408359C08A81863008F0C9
:1032B00055C08981883108F051C08A81282F30E0BB
:1032C0008981682F70E08A81482F50E08981E82F3A
:1032D000F0E0CA01880F991F840F951F880F991F6E
:1032E000880F991F880F991F8E0F9F1F81559E4F22
:1032F000FC018081482F407F8C819D81892F9927F7
:10330000482BC901880F991F820F931F880F991F9F
:10331000880F991F880F991F860F971F81559E4F01
:10332000FC01408389818F5F89838A81282F30E067
:103330008981482F50E06C81C901880F991F820F45
:10334000931F880F991F880F991F880F991F840F4B
:10335000951F81559E4FFC01608300000F900F90D8
:103360000F900F900F90CF91DF910895DF93CF933F
:10337000CDB7DEB787E390E027E330E0F9012081A5
:103380002F7BFC01208381E390E021E330E0F90111
:1033900020812064FC01208382E390E022E330E07E
:1033A000F90120812F77FC012083CF91DF910895CF
:1033B000DF93CF930F92CDB7DEB782E390E022E3A5
:1033C00030E0F90120812F7BFC01208382E390E033
:1033D00022E330E0F90120812064FC01208319827E
:1033E0001AC08FE290E0FC01108200008EE290E0B3
:1033F000FC0180818823D4F78981992787FD9095E6
:103400002FE230E0F901208185569E4FFC01208398
:1034100089818F5F8983898184301CF30F90CF91DC
:10342000DF910895DF93CF93CDB7DEB784E390E0CB
:1034300024E330E0F90120812068FC01208380E052
:103440000E946E1ACF91DF910895DF93CF9300D041
:10345000CDB7DEB789836A838981882F90E0815652
:103460009E4F2A81FC0120830F900F90CF91DF9116
:103470000895DF93CF9300D00F92CDB7DEB7898345
:103480006A834B838B81882389F08981882F90E020
:103490002981222F30E021563E4FF90130812A81C7
:1034A000232B81569E4FFC01208312C08981882FD7
:1034B00090E02981222F30E021563E4FF9012081F2
:1034C000322F2A812095232381569E4FFC01208391
:1034D0000F900F900F90CF91DF910895DF93CF93CE
:1034E00000D00F92CDB7DEB78B831A8219820CC041
:1034F00089819A8181569E4F2B81FC01208389818D
:103500009A8101969A83898389819A818330910572
:103510007CF30F900F900F90CF91DF910895DF9380
:10352000CF9300D0CDB7DEB782E090E09A83898355
:1035300016C08FE290E029813A8121563E4FF90171
:103540002081FC01208300008EE290E0FC0180815C
:103550008823D4F789819A8101979A838983898105
:103560009A81992334F785E390E025E330E0F9016F
:1035700020812068FC01208385E390E025E330E092
:10358000F90120812F77FC0120830F900F90CF91BC
:10359000DF9108955058BB27AA270ED0C6C1B7D1D6
:1035A00030F0BCD120F031F49F3F11F41EF487C1FC
:1035B0000EF4E095E7FB7DC1E92FC8D180F3BA177F
:1035C000620773078407950718F071F49EF5E0C150
:1035D0000EF4E0950B2EBA2FA02D0B01B90190012E
:1035E0000C01CA01A0011124FF27591B99F0593F72
:1035F00050F4503E68F11A16F040A22F232F342FBA
:103600004427585FF3CF469537952795A795F04007
:103610005395C9F77EF41F16BA0B620B730B840B1C
:10362000BAF09150A1F0FF0FBB1F661F771F881FD4
:10363000C2F70EC0BA0F621F731F841F48F487952C
:1036400077956795B795F7959E3F08F0B3CF93951B
:10365000880F08F09927EE0F97958795089505D163
:1036600008F481E008950CD060C158D140F04FD1EA
:1036700030F021F45F3F19F01CC151118AC11FC104
:1036800065D198F39923C9F35523B1F3951B550BD5
:10369000BB27AA2762177307840738F09F5F5F4F25
:1036A000220F331F441FAA1FA9F333D00E2E3AF066
:1036B000E0E830D091505040E695001CCAF729D080
:1036C000FE2F27D0660F771F881FBB1F26173707CF
:1036D0004807AB07B0E809F0BB0B802DBF01FF27FF
:1036E00093585F4F2AF09E3F510568F0E2C051C1E8
:1036F0005F3FECF3983EDCF3869577956795B79539
:10370000F7959F5FC9F7880F911D9695879597F953
:103710000895E1E0660F771F881FBB1F62177307CC
:103720008407BA0720F0621B730B840BBA0BEE1FE1
:1037300088F7E095089519F40EF0BBC029C1BFC009
:103740000DD1C8F39638C0F707F80F92E8942BE331
:103750003AEA48EB5FE7A5D10F920F920F924DB76F
:103760005EB70F925DD1E4E5F0E0ACD04F915F9190
:10377000EF91FF91E595EE1FFF1F49F0FE57E068BE
:103780004427EE0F441FFA95E1F74195550B14D1EC
:103790000F9007FE08C10895E1D088F09F5790F080
:1037A000B92F9927B751A0F0D1F0660F771F881F66
:1037B000991F1AF0BA95C9F712C0B13081F0E8D05C
:1037C000B1E00895E5C0672F782F8827B85F39F0FA
:1037D000B93FCCF3869577956795B395D9F73EF4C5
:1037E00090958095709561957F4F8F4F9F4F08956D
:1037F000E89409C097FB3EF490958095709561958B
:103800007F4F8F4F9F4F9923A9F0F92F96E9BB2740
:103810009395F695879577956795B795F111F8CFBC
:10382000FAF4BB0F11F460FF1BC06F5F7F4F8F4F27
:103830009F4F16C0882311F096E911C0772321F01D
:103840009EE8872F762F05C0662371F096E8862FB5
:1038500070E060E02AF09A95660F771F881FDAF70C
:10386000880F9695879597F90895990F0008550F39
:10387000AA0BE0E8FEEF16161706E807F907C0F0F6
:1038800012161306E407F50798F0621B730B840BFE
:10389000950B39F40A2661F0232B242B252B21F4D8
:1038A00008950A2609F4A140A6958FEF811D811D78
:1038B000089597F99F6780E870E060E008959FEFB2
:1038C00080EC0895DF93CF931F930F93FF92EF92B5
:1038D000DF927B018C01689405C0DA2EEF01DFD006
:1038E000FE01E894A5912591359145915591AEF34E
:1038F000EF0162DEFE019701A801DA9479F7DF900B
:10390000EF90FF900F911F91CF91DF9108950024C8
:103910000A941616170618060906089500240A9434
:1039200012161306140605060895092E0394000CBA
:1039300011F4882352F0BB0F40F4BF2B11F460FF49
:1039400004C06F5F7F4F8F4F9F4F089557FD905872
:10395000440F551F59F05F3F71F04795880F97FB53
:10396000991F61F09F3F79F087950895121613060D
:103970001406551FF2CF4695F1DF08C0161617063C
:103980001806991FF1CF8695710561050894089571
:10399000E894BB2766277727CB0197F9089565DF61
:1039A00008F48FEF08959B01AC0160E070E080E8BF
:1039B0009FE359CE7ECF16C1D1DFE8F39923D9F327
:1039C000940F511DBBF39150504094F059F088234F
:1039D00032F0660F771F881F91505040C1F79E3F0D
:1039E000510544F7880F911D9695879597F908958D
:1039F0005F3FACF0983E9CF0BB2786957795679526
:103A0000B79508F4B1609395C1F7BB0F58F711F45F
:103A100060FFE8CF6F5F7F4F8F4F9F4FE3CFB9CFEE
:103A2000FA01DC01AA0FBB1F9B01AC01BF5728F4B0
:103A300022273327442750781FC0B75188F4AB2F73
:103A40000024469537952795011CA395D2F30020B5
:103A500069F0220F331F441FB395DAF30DD09ACDCE
:103A600061307105A0E88A07B94630F49B01AC01CA
:103A70006627772788279078309621F02083318336
:103A80004283538308950BD050CF41DF28F046DFA7
:103A900018F0952309F00DCF12CF11247ACF56DFFD
:103AA000A0F3959FD1F3950F50E0551F629FF00151
:103AB000729FBB27F00DB11D639FAA27F00DB11DAA
:103AC000AA1F649F6627B00DA11D661F829F222733
:103AD000B00DA11D621F739FB00DA11D621F839FBA
:103AE000A00D611D221F749F3327A00D611D231F90
:103AF000849F600D211D822F762F6A2F11249F57DE
:103B000050408AF0E1F088234AF0EE0FFF1FBB1F00
:103B1000661F771F881F91505040A9F79E3F51059F
:103B200070F0C7CE36CF5F3FECF3983EDCF386955E
:103B300077956795B795F795E7959F5FC1F7FE2B4A
:103B4000880F911D9695879597F90895FA01EE0FC4
:103B5000FF1F30962105310599F16115710561F45A
:103B60008038BFE39B0749F168949038810561F084
:103B70008038BFEF9B0741F0992342F5FF3FE105F5
:103B80003105210511F1E8940894E795D901AA239C
:103B900029F4AB2FBE2FF85FD0F310C0FF5F70F495
:103BA000A695E0F7F73950F019F0FF3A38F49F770F
:103BB0009F930CD00F9007FC905808953EF07FCE55
:103BC00060E070E080E89FE308954FE79F775F93A0
:103BD0004F933F932F9319D02F913F914F915F9126
:103BE00052DFAECD9F3F31F0915020F4879577950D
:103BF0006795B795880F911D9695879597F90895C4
:103C00000EF0F0CF5CCE689454CEA8DEC8F39923B2
:103C1000D1F3C6F3DF93CF931F930F93FF92C92F76
:103C2000DD2788232AF02197660F771F881FDAF790
:103C300020E030E040E85FEB9FE3883920F0803EF1
:103C400030F021968F77A7DCECE7F0E003C0A3DC2F
:103C5000E9EAF0E037DE8B01BE01EC01FB2E6F5785
:103C600071097595771F880B990BC4DD28E132E740
:103C700041E35FE314DFAF2D9801AE01FF900F9198
:103C80001F91CF91DF9198DC50CEF8940C94D71E01
:103C9000629FD001739FF001829FE00DF11D649F30
:103CA000E00DF11D929FF00D839FF00D749FF00DBC
:103CB000659FF00D9927729FB00DE11DF91F639F5D
:103CC000B00DE11DF91FBD01CF0111240895991B0D
:103CD00079E004C0991F961708F0961B881F7A9503
:103CE000C9F78095089597FB092E07260AD077FD1E
:103CF00004D027D006D000201AF4709561957F4F2C
:103D00000895F6F7909581959F4F089597FB092E9A
:103D100005260ED057FD04D028D00AD0001C38F458
:103D200050954095309521953F4F4F4F5F4F0895E7
:103D3000F6F790958095709561957F4F8F4F9F4FC7
:103D40000895AA1BBB1B51E107C0AA1FBB1FA617E2
:103D5000B70710F0A61BB70B881F991F5A95A9F734
:103D600080959095BC01CD010895A1E21A2EAA1B61
:103D7000BB1BFD010DC0AA1FBB1FEE1FFF1FA2171B
:103D8000B307E407F50720F0A21BB30BE40BF50B18
:103D9000661F771F881F991F1A9469F760957095A1
:103DA000809590959B01AC01BD01CF010895F894D9
:023DB000FFCF43
:103DB20000000100000300000500000000024000B6
:103DC2000100000000028000010000000003010069
:103DD20001000000000302000100000000030400D3
:103DE20001000000000308000100000000031000B1
:103DF2000100000000032000010000000003400059
:103E020001000000000380000140000000010200E8
:103E120003014000000004080003024000000010FB
:103E2200200003044000000040800003084000001E
:103E320001010200031040000001040800032040B9
:103E420000000110200003404000000140800003F8
:103E52008040000002010200040140000002040848
:103E620000020040000002102000020000000000DA
:103E72000100010000000000000104020503060128
:103E820000000001000000010000007F0000007F30
:103E92000000007F0000000100000001000000019E
:103EA2000000007F0000007F0000007F0000000093
:00000001FF
